{
  "_format": "hh-sol-artifact-1",
  "contractName": "Token",
  "sourceName": "contracts/Token.sol",
  "abi": [
    {
      "inputs": [],
      "stateMutability": "nonpayable",
      "type": "constructor"
    },
    {
      "anonymous": false,
      "inputs": [
        {
          "indexed": true,
          "internalType": "address",
          "name": "_from",
          "type": "address"
        },
        {
          "indexed": true,
          "internalType": "address",
          "name": "_to",
          "type": "address"
        },
        {
          "indexed": false,
          "internalType": "uint256",
          "name": "_value",
          "type": "uint256"
        }
      ],
      "name": "Transfer",
      "type": "event"
    },
    {
      "inputs": [
        {
          "internalType": "address",
          "name": "account",
          "type": "address"
        }
      ],
      "name": "balanceOf",
      "outputs": [
        {
          "internalType": "uint256",
          "name": "",
          "type": "uint256"
        }
      ],
      "stateMutability": "view",
      "type": "function"
    },
    {
      "inputs": [
        {
          "internalType": "uint32",
          "name": "_amount",
          "type": "uint32"
        }
      ],
      "name": "burnTokens",
      "outputs": [],
      "stateMutability": "nonpayable",
      "type": "function"
    },
    {
      "inputs": [],
      "name": "burningDate",
      "outputs": [
        {
          "internalType": "uint256",
          "name": "",
          "type": "uint256"
        }
      ],
      "stateMutability": "view",
      "type": "function"
    },
    {
      "inputs": [],
      "name": "decimals",
      "outputs": [
        {
          "internalType": "uint256",
          "name": "",
          "type": "uint256"
        }
      ],
      "stateMutability": "view",
      "type": "function"
    },
    {
      "inputs": [
        {
          "internalType": "uint32",
          "name": "_count",
          "type": "uint32"
        }
      ],
      "name": "extendDate",
      "outputs": [],
      "stateMutability": "nonpayable",
      "type": "function"
    },
    {
      "inputs": [],
      "name": "name",
      "outputs": [
        {
          "internalType": "string",
          "name": "",
          "type": "string"
        }
      ],
      "stateMutability": "view",
      "type": "function"
    },
    {
      "inputs": [],
      "name": "owner",
      "outputs": [
        {
          "internalType": "address",
          "name": "",
          "type": "address"
        }
      ],
      "stateMutability": "view",
      "type": "function"
    },
    {
      "inputs": [],
      "name": "symbol",
      "outputs": [
        {
          "internalType": "string",
          "name": "",
          "type": "string"
        }
      ],
      "stateMutability": "view",
      "type": "function"
    },
    {
      "inputs": [],
      "name": "totalSupply",
      "outputs": [
        {
          "internalType": "uint256",
          "name": "",
          "type": "uint256"
        }
      ],
      "stateMutability": "view",
      "type": "function"
    },
    {
      "inputs": [
        {
          "internalType": "address",
          "name": "to",
          "type": "address"
        },
        {
          "internalType": "uint256",
          "name": "amount",
          "type": "uint256"
        }
      ],
      "name": "transfer",
      "outputs": [],
      "stateMutability": "nonpayable",
      "type": "function"
    }
  ],
  "bytecode": "0x60806040526040518060400160405280601481526020017f5365636f6e64204976617369756b20546f6b656e00000000000000000000000081525060009080519060200190620000519291906200015f565b506040518060400160405280600481526020017f4956533100000000000000000000000000000000000000000000000000000000815250600190805190602001906200009f9291906200015f565b50601260025568120d4da7b0bd140000600355607842620000c1919062000248565b600555348015620000d157600080fd5b50600354600660003373ffffffffffffffffffffffffffffffffffffffff1673ffffffffffffffffffffffffffffffffffffffff1681526020019081526020016000208190555033600460006101000a81548173ffffffffffffffffffffffffffffffffffffffff021916908373ffffffffffffffffffffffffffffffffffffffff1602179055506200030a565b8280546200016d90620002d4565b90600052602060002090601f016020900481019282620001915760008555620001dd565b82601f10620001ac57805160ff1916838001178555620001dd565b82800160010185558215620001dd579182015b82811115620001dc578251825591602001919060010190620001bf565b5b509050620001ec9190620001f0565b5090565b5b808211156200020b576000816000905550600101620001f1565b5090565b6000819050919050565b7f4e487b7100000000000000000000000000000000000000000000000000000000600052601160045260246000fd5b600062000255826200020f565b915062000262836200020f565b9250827fffffffffffffffffffffffffffffffffffffffffffffffffffffffffffffffff038211156200029a576200029962000219565b5b828201905092915050565b7f4e487b7100000000000000000000000000000000000000000000000000000000600052602260045260246000fd5b60006002820490506001821680620002ed57607f821691505b60208210811415620003045762000303620002a5565b5b50919050565b610cb9806200031a6000396000f3fe608060405234801561001057600080fd5b506004361061009e5760003560e01c80638da5cb5b116100665780638da5cb5b1461014b57806395d89b4114610169578063a9059cbb14610187578063fa7b18e6146101a3578063fb3468a3146101bf5761009e565b806306fdde03146100a357806318160ddd146100c1578063313ce567146100df5780634d4bd425146100fd57806370a082311461011b575b600080fd5b6100ab6101db565b6040516100b891906107c2565b60405180910390f35b6100c9610269565b6040516100d691906107fd565b60405180910390f35b6100e761026f565b6040516100f491906107fd565b60405180910390f35b610105610275565b60405161011291906107fd565b60405180910390f35b6101356004803603810190610130919061087b565b61027b565b60405161014291906107fd565b60405180910390f35b6101536102c4565b60405161016091906108b7565b60405180910390f35b6101716102ea565b60405161017e91906107c2565b60405180910390f35b6101a1600480360381019061019c91906108fe565b610378565b005b6101bd60048036038101906101b8919061097a565b61050f565b005b6101d960048036038101906101d4919061097a565b61053e565b005b600080546101e8906109d6565b80601f0160208091040260200160405190810160405280929190818152602001828054610214906109d6565b80156102615780601f1061023657610100808354040283529160200191610261565b820191906000526020600020905b81548152906001019060200180831161024457829003601f168201915b505050505081565b60035481565b60025481565b60055481565b6000600660008373ffffffffffffffffffffffffffffffffffffffff1673ffffffffffffffffffffffffffffffffffffffff168152602001908152602001600020549050919050565b600460009054906101000a900473ffffffffffffffffffffffffffffffffffffffff1681565b600180546102f7906109d6565b80601f0160208091040260200160405190810160405280929190818152602001828054610323906109d6565b80156103705780601f1061034557610100808354040283529160200191610370565b820191906000526020600020905b81548152906001019060200180831161035357829003601f168201915b505050505081565b80600660003373ffffffffffffffffffffffffffffffffffffffff1673ffffffffffffffffffffffffffffffffffffffff1681526020019081526020016000205410156103fa576040517f08c379a00000000000000000000000000000000000000000000000000000000081526004016103f190610a54565b60405180910390fd5b80600660003373ffffffffffffffffffffffffffffffffffffffff1673ffffffffffffffffffffffffffffffffffffffff16815260200190815260200160002060008282546104499190610aa3565b9250508190555080600660008473ffffffffffffffffffffffffffffffffffffffff1673ffffffffffffffffffffffffffffffffffffffff168152602001908152602001600020600082825461049f9190610ad7565b925050819055508173ffffffffffffffffffffffffffffffffffffffff163373ffffffffffffffffffffffffffffffffffffffff167fddf252ad1be2c89b69c2b068fc378daa952ba7f163c4a11628f55a4df523b3ef8360405161050391906107fd565b60405180910390a35050565b620151808161051e9190610b2d565b63ffffffff164261052f9190610ad7565b63ffffffff1660058190555050565b600554421015610583576040517f08c379a000000000000000000000000000000000000000000000000000000000815260040161057a90610bb7565b60405180910390fd5b8063ffffffff16600660003373ffffffffffffffffffffffffffffffffffffffff1673ffffffffffffffffffffffffffffffffffffffff16815260200190815260200160002054101561060b576040517f08c379a000000000000000000000000000000000000000000000000000000000815260040161060290610a54565b60405180910390fd5b670de0b6b3a76400008163ffffffff166106259190610beb565b67ffffffffffffffff16600660003373ffffffffffffffffffffffffffffffffffffffff1673ffffffffffffffffffffffffffffffffffffffff168152602001908152602001600020600082825461067d9190610aa3565b92505081905550670de0b6b3a76400008163ffffffff1661069e9190610beb565b67ffffffffffffffff16600360008282546106b99190610aa3565b92505081905550600073ffffffffffffffffffffffffffffffffffffffff163373ffffffffffffffffffffffffffffffffffffffff167fddf252ad1be2c89b69c2b068fc378daa952ba7f163c4a11628f55a4df523b3ef8360405161071e9190610c68565b60405180910390a350565b600081519050919050565b600082825260208201905092915050565b60005b83811015610763578082015181840152602081019050610748565b83811115610772576000848401525b50505050565b6000601f19601f8301169050919050565b600061079482610729565b61079e8185610734565b93506107ae818560208601610745565b6107b781610778565b840191505092915050565b600060208201905081810360008301526107dc8184610789565b905092915050565b6000819050919050565b6107f7816107e4565b82525050565b600060208201905061081260008301846107ee565b92915050565b600080fd5b600073ffffffffffffffffffffffffffffffffffffffff82169050919050565b60006108488261081d565b9050919050565b6108588161083d565b811461086357600080fd5b50565b6000813590506108758161084f565b92915050565b60006020828403121561089157610890610818565b5b600061089f84828501610866565b91505092915050565b6108b18161083d565b82525050565b60006020820190506108cc60008301846108a8565b92915050565b6108db816107e4565b81146108e657600080fd5b50565b6000813590506108f8816108d2565b92915050565b6000806040838503121561091557610914610818565b5b600061092385828601610866565b9250506020610934858286016108e9565b9150509250929050565b600063ffffffff82169050919050565b6109578161093e565b811461096257600080fd5b50565b6000813590506109748161094e565b92915050565b6000602082840312156109905761098f610818565b5b600061099e84828501610965565b91505092915050565b7f4e487b7100000000000000000000000000000000000000000000000000000000600052602260045260246000fd5b600060028204905060018216806109ee57607f821691505b60208210811415610a0257610a016109a7565b5b50919050565b7f4e6f7420656e6f75676820746f6b656e73000000000000000000000000000000600082015250565b6000610a3e601183610734565b9150610a4982610a08565b602082019050919050565b60006020820190508181036000830152610a6d81610a31565b9050919050565b7f4e487b7100000000000000000000000000000000000000000000000000000000600052601160045260246000fd5b6000610aae826107e4565b9150610ab9836107e4565b925082821015610acc57610acb610a74565b5b828203905092915050565b6000610ae2826107e4565b9150610aed836107e4565b9250827fffffffffffffffffffffffffffffffffffffffffffffffffffffffffffffffff03821115610b2257610b21610a74565b5b828201905092915050565b6000610b388261093e565b9150610b438361093e565b92508163ffffffff0483118215151615610b6057610b5f610a74565b5b828202905092915050565b7f4e6f74206f7574206f6620646174650000000000000000000000000000000000600082015250565b6000610ba1600f83610734565b9150610bac82610b6b565b602082019050919050565b60006020820190508181036000830152610bd081610b94565b9050919050565b600067ffffffffffffffff82169050919050565b6000610bf682610bd7565b9150610c0183610bd7565b92508167ffffffffffffffff0483118215151615610c2257610c21610a74565b5b828202905092915050565b6000819050919050565b6000610c52610c4d610c488461093e565b610c2d565b6107e4565b9050919050565b610c6281610c37565b82525050565b6000602082019050610c7d6000830184610c59565b9291505056fea26469706673582212208afa94290de79a184ea6787ff10a0c600bb31a3298d635d05372bad9ae98683f64736f6c63430008090033",
  "linkReferences": {},
  "deployedLinkReferences": {}
}