{
  "_format": "hh-sol-artifact-1",
  "contractName": "Token",
  "sourceName": "contracts/Token.sol",
  "abi": [
    {
      "inputs": [],
      "stateMutability": "nonpayable",
      "type": "constructor"
    },
    {
      "anonymous": false,
      "inputs": [
        {
          "indexed": true,
          "internalType": "address",
          "name": "_from",
          "type": "address"
        },
        {
          "indexed": true,
          "internalType": "address",
          "name": "_to",
          "type": "address"
        },
        {
          "indexed": false,
          "internalType": "uint256",
          "name": "_value",
          "type": "uint256"
        }
      ],
      "name": "Transfer",
      "type": "event"
    },
    {
      "inputs": [
        {
          "internalType": "address",
          "name": "account",
          "type": "address"
        }
      ],
      "name": "balanceOf",
      "outputs": [
        {
          "internalType": "uint256",
          "name": "",
          "type": "uint256"
        }
      ],
      "stateMutability": "view",
      "type": "function"
    },
    {
      "inputs": [
        {
          "internalType": "uint32",
          "name": "_amount",
          "type": "uint32"
        }
      ],
      "name": "burnTokens",
      "outputs": [],
      "stateMutability": "nonpayable",
      "type": "function"
    },
    {
      "inputs": [],
      "name": "burningDate",
      "outputs": [
        {
          "internalType": "uint32",
          "name": "",
          "type": "uint32"
        }
      ],
      "stateMutability": "view",
      "type": "function"
    },
    {
      "inputs": [],
      "name": "decimals",
      "outputs": [
        {
          "internalType": "uint256",
          "name": "",
          "type": "uint256"
        }
      ],
      "stateMutability": "view",
      "type": "function"
    },
    {
      "inputs": [
        {
          "internalType": "uint32",
          "name": "_count",
          "type": "uint32"
        }
      ],
      "name": "extendDate",
      "outputs": [],
      "stateMutability": "nonpayable",
      "type": "function"
    },
    {
      "inputs": [],
      "name": "name",
      "outputs": [
        {
          "internalType": "string",
          "name": "",
          "type": "string"
        }
      ],
      "stateMutability": "view",
      "type": "function"
    },
    {
      "inputs": [],
      "name": "owner",
      "outputs": [
        {
          "internalType": "address",
          "name": "",
          "type": "address"
        }
      ],
      "stateMutability": "view",
      "type": "function"
    },
    {
      "inputs": [],
      "name": "symbol",
      "outputs": [
        {
          "internalType": "string",
          "name": "",
          "type": "string"
        }
      ],
      "stateMutability": "view",
      "type": "function"
    },
    {
      "inputs": [],
      "name": "totalSupply",
      "outputs": [
        {
          "internalType": "uint256",
          "name": "",
          "type": "uint256"
        }
      ],
      "stateMutability": "view",
      "type": "function"
    },
    {
      "inputs": [
        {
          "internalType": "address",
          "name": "to",
          "type": "address"
        },
        {
          "internalType": "uint256",
          "name": "amount",
          "type": "uint256"
        }
      ],
      "name": "transfer",
      "outputs": [],
      "stateMutability": "nonpayable",
      "type": "function"
    }
  ],
  "bytecode": "0x60806040526040518060400160405280601481526020017f5365636f6e64204976617369756b20546f6b656e00000000000000000000000081525060009080519060200190620000519291906200017c565b506040518060400160405280600481526020017f4956533100000000000000000000000000000000000000000000000000000000815250600190805190602001906200009f9291906200017c565b506012600255670de0b6b3a7640000600355610e1042620000c1919062000265565b600460146101000a81548163ffffffff021916908363ffffffff160217905550348015620000ee57600080fd5b50600354600560003373ffffffffffffffffffffffffffffffffffffffff1673ffffffffffffffffffffffffffffffffffffffff1681526020019081526020016000208190555033600460006101000a81548173ffffffffffffffffffffffffffffffffffffffff021916908373ffffffffffffffffffffffffffffffffffffffff16021790555062000327565b8280546200018a90620002f1565b90600052602060002090601f016020900481019282620001ae5760008555620001fa565b82601f10620001c957805160ff1916838001178555620001fa565b82800160010185558215620001fa579182015b82811115620001f9578251825591602001919060010190620001dc565b5b5090506200020991906200020d565b5090565b5b80821115620002285760008160009055506001016200020e565b5090565b6000819050919050565b7f4e487b7100000000000000000000000000000000000000000000000000000000600052601160045260246000fd5b600062000272826200022c565b91506200027f836200022c565b9250827fffffffffffffffffffffffffffffffffffffffffffffffffffffffffffffffff03821115620002b757620002b662000236565b5b828201905092915050565b7f4e487b7100000000000000000000000000000000000000000000000000000000600052602260045260246000fd5b600060028204905060018216806200030a57607f821691505b60208210811415620003215762000320620002c2565b5b50919050565b610beb80620003376000396000f3fe608060405234801561001057600080fd5b506004361061009e5760003560e01c80638da5cb5b116100665780638da5cb5b1461014b57806395d89b4114610169578063a9059cbb14610187578063fa7b18e6146101a3578063fb3468a3146101bf5761009e565b806306fdde03146100a357806318160ddd146100c1578063313ce567146100df5780634d4bd425146100fd57806370a082311461011b575b600080fd5b6100ab6101db565b6040516100b8919061078c565b60405180910390f35b6100c9610269565b6040516100d691906107c7565b60405180910390f35b6100e761026f565b6040516100f491906107c7565b60405180910390f35b610105610275565b6040516101129190610801565b60405180910390f35b6101356004803603810190610130919061087f565b61028b565b60405161014291906107c7565b60405180910390f35b6101536102d4565b60405161016091906108bb565b60405180910390f35b6101716102fa565b60405161017e919061078c565b60405180910390f35b6101a1600480360381019061019c9190610902565b610388565b005b6101bd60048036038101906101b8919061096e565b61051f565b005b6101d960048036038101906101d4919061096e565b610562565b005b600080546101e8906109ca565b80601f0160208091040260200160405190810160405280929190818152602001828054610214906109ca565b80156102615780601f1061023657610100808354040283529160200191610261565b820191906000526020600020905b81548152906001019060200180831161024457829003601f168201915b505050505081565b60035481565b60025481565b600460149054906101000a900463ffffffff1681565b6000600560008373ffffffffffffffffffffffffffffffffffffffff1673ffffffffffffffffffffffffffffffffffffffff168152602001908152602001600020549050919050565b600460009054906101000a900473ffffffffffffffffffffffffffffffffffffffff1681565b60018054610307906109ca565b80601f0160208091040260200160405190810160405280929190818152602001828054610333906109ca565b80156103805780601f1061035557610100808354040283529160200191610380565b820191906000526020600020905b81548152906001019060200180831161036357829003601f168201915b505050505081565b80600560003373ffffffffffffffffffffffffffffffffffffffff1673ffffffffffffffffffffffffffffffffffffffff16815260200190815260200160002054101561040a576040517f08c379a000000000000000000000000000000000000000000000000000000000815260040161040190610a48565b60405180910390fd5b80600560003373ffffffffffffffffffffffffffffffffffffffff1673ffffffffffffffffffffffffffffffffffffffff16815260200190815260200160002060008282546104599190610a97565b9250508190555080600560008473ffffffffffffffffffffffffffffffffffffffff1673ffffffffffffffffffffffffffffffffffffffff16815260200190815260200160002060008282546104af9190610acb565b925050819055508173ffffffffffffffffffffffffffffffffffffffff163373ffffffffffffffffffffffffffffffffffffffff167fddf252ad1be2c89b69c2b068fc378daa952ba7f163c4a11628f55a4df523b3ef8360405161051391906107c7565b60405180910390a35050565b620151808161052e9190610b21565b63ffffffff164261053f9190610acb565b600460146101000a81548163ffffffff021916908363ffffffff16021790555050565b600460149054906101000a900463ffffffff1663ffffffff1642101561058757600080fd5b8063ffffffff16600560003373ffffffffffffffffffffffffffffffffffffffff1673ffffffffffffffffffffffffffffffffffffffff16815260200190815260200160002054101561060f576040517f08c379a000000000000000000000000000000000000000000000000000000000815260040161060690610a48565b60405180910390fd5b8063ffffffff16600560003373ffffffffffffffffffffffffffffffffffffffff1673ffffffffffffffffffffffffffffffffffffffff16815260200190815260200160002060008282546106649190610a97565b925050819055508063ffffffff16600360008282546106839190610a97565b92505081905550600073ffffffffffffffffffffffffffffffffffffffff163373ffffffffffffffffffffffffffffffffffffffff167fddf252ad1be2c89b69c2b068fc378daa952ba7f163c4a11628f55a4df523b3ef836040516106e89190610b9a565b60405180910390a350565b600081519050919050565b600082825260208201905092915050565b60005b8381101561072d578082015181840152602081019050610712565b8381111561073c576000848401525b50505050565b6000601f19601f8301169050919050565b600061075e826106f3565b61076881856106fe565b935061077881856020860161070f565b61078181610742565b840191505092915050565b600060208201905081810360008301526107a68184610753565b905092915050565b6000819050919050565b6107c1816107ae565b82525050565b60006020820190506107dc60008301846107b8565b92915050565b600063ffffffff82169050919050565b6107fb816107e2565b82525050565b600060208201905061081660008301846107f2565b92915050565b600080fd5b600073ffffffffffffffffffffffffffffffffffffffff82169050919050565b600061084c82610821565b9050919050565b61085c81610841565b811461086757600080fd5b50565b60008135905061087981610853565b92915050565b6000602082840312156108955761089461081c565b5b60006108a38482850161086a565b91505092915050565b6108b581610841565b82525050565b60006020820190506108d060008301846108ac565b92915050565b6108df816107ae565b81146108ea57600080fd5b50565b6000813590506108fc816108d6565b92915050565b600080604083850312156109195761091861081c565b5b60006109278582860161086a565b9250506020610938858286016108ed565b9150509250929050565b61094b816107e2565b811461095657600080fd5b50565b60008135905061096881610942565b92915050565b6000602082840312156109845761098361081c565b5b600061099284828501610959565b91505092915050565b7f4e487b7100000000000000000000000000000000000000000000000000000000600052602260045260246000fd5b600060028204905060018216806109e257607f821691505b602082108114156109f6576109f561099b565b5b50919050565b7f4e6f7420656e6f75676820746f6b656e73000000000000000000000000000000600082015250565b6000610a326011836106fe565b9150610a3d826109fc565b602082019050919050565b60006020820190508181036000830152610a6181610a25565b9050919050565b7f4e487b7100000000000000000000000000000000000000000000000000000000600052601160045260246000fd5b6000610aa2826107ae565b9150610aad836107ae565b925082821015610ac057610abf610a68565b5b828203905092915050565b6000610ad6826107ae565b9150610ae1836107ae565b9250827fffffffffffffffffffffffffffffffffffffffffffffffffffffffffffffffff03821115610b1657610b15610a68565b5b828201905092915050565b6000610b2c826107e2565b9150610b37836107e2565b92508163ffffffff0483118215151615610b5457610b53610a68565b5b828202905092915050565b6000819050919050565b6000610b84610b7f610b7a846107e2565b610b5f565b6107ae565b9050919050565b610b9481610b69565b82525050565b6000602082019050610baf6000830184610b8b565b9291505056fea2646970667358221220d82cd8ed1b01ac73066a7bc5277b2b0f26484d8b92a181c41432ff5860c56c5364736f6c63430008090033",
  "linkReferences": {},
  "deployedLinkReferences": {}
}